{
  "_format": "hh-sol-artifact-1",
  "contractName": "Minechain",
  "sourceName": "contracts/Minechain.sol",
  "abi": [
    {
      "inputs": [],
      "stateMutability": "nonpayable",
      "type": "constructor"
    },
    {
      "anonymous": false,
      "inputs": [
        {
          "indexed": true,
          "internalType": "address",
          "name": "owner",
          "type": "address"
        },
        {
          "indexed": true,
          "internalType": "address",
          "name": "approved",
          "type": "address"
        },
        {
          "indexed": true,
          "internalType": "uint256",
          "name": "tokenId",
          "type": "uint256"
        }
      ],
      "name": "Approval",
      "type": "event"
    },
    {
      "anonymous": false,
      "inputs": [
        {
          "indexed": true,
          "internalType": "address",
          "name": "owner",
          "type": "address"
        },
        {
          "indexed": true,
          "internalType": "address",
          "name": "operator",
          "type": "address"
        },
        {
          "indexed": false,
          "internalType": "bool",
          "name": "approved",
          "type": "bool"
        }
      ],
      "name": "ApprovalForAll",
      "type": "event"
    },
    {
      "anonymous": false,
      "inputs": [
        {
          "indexed": true,
          "internalType": "address",
          "name": "previousOwner",
          "type": "address"
        },
        {
          "indexed": true,
          "internalType": "address",
          "name": "newOwner",
          "type": "address"
        }
      ],
      "name": "OwnershipTransferred",
      "type": "event"
    },
    {
      "anonymous": false,
      "inputs": [
        {
          "indexed": false,
          "internalType": "address",
          "name": "account",
          "type": "address"
        }
      ],
      "name": "Paused",
      "type": "event"
    },
    {
      "anonymous": false,
      "inputs": [
        {
          "indexed": true,
          "internalType": "address",
          "name": "from",
          "type": "address"
        },
        {
          "indexed": true,
          "internalType": "address",
          "name": "to",
          "type": "address"
        },
        {
          "indexed": true,
          "internalType": "uint256",
          "name": "tokenId",
          "type": "uint256"
        }
      ],
      "name": "Transfer",
      "type": "event"
    },
    {
      "anonymous": false,
      "inputs": [
        {
          "indexed": false,
          "internalType": "address",
          "name": "account",
          "type": "address"
        }
      ],
      "name": "Unpaused",
      "type": "event"
    },
    {
      "inputs": [],
      "name": "MAX_SUPPLY",
      "outputs": [
        {
          "internalType": "uint256",
          "name": "",
          "type": "uint256"
        }
      ],
      "stateMutability": "view",
      "type": "function"
    },
    {
      "inputs": [
        {
          "internalType": "address",
          "name": "to",
          "type": "address"
        },
        {
          "internalType": "uint256",
          "name": "tokenId",
          "type": "uint256"
        }
      ],
      "name": "approve",
      "outputs": [],
      "stateMutability": "nonpayable",
      "type": "function"
    },
    {
      "inputs": [
        {
          "internalType": "address",
          "name": "owner",
          "type": "address"
        }
      ],
      "name": "balanceOf",
      "outputs": [
        {
          "internalType": "uint256",
          "name": "",
          "type": "uint256"
        }
      ],
      "stateMutability": "view",
      "type": "function"
    },
    {
      "inputs": [
        {
          "internalType": "uint256",
          "name": "tokenId",
          "type": "uint256"
        }
      ],
      "name": "getApproved",
      "outputs": [
        {
          "internalType": "address",
          "name": "",
          "type": "address"
        }
      ],
      "stateMutability": "view",
      "type": "function"
    },
    {
      "inputs": [
        {
          "internalType": "address",
          "name": "owner",
          "type": "address"
        },
        {
          "internalType": "address",
          "name": "operator",
          "type": "address"
        }
      ],
      "name": "isApprovedForAll",
      "outputs": [
        {
          "internalType": "bool",
          "name": "",
          "type": "bool"
        }
      ],
      "stateMutability": "view",
      "type": "function"
    },
    {
      "inputs": [],
      "name": "mintRate",
      "outputs": [
        {
          "internalType": "uint256",
          "name": "",
          "type": "uint256"
        }
      ],
      "stateMutability": "view",
      "type": "function"
    },
    {
      "inputs": [],
      "name": "name",
      "outputs": [
        {
          "internalType": "string",
          "name": "",
          "type": "string"
        }
      ],
      "stateMutability": "view",
      "type": "function"
    },
    {
      "inputs": [],
      "name": "owner",
      "outputs": [
        {
          "internalType": "address",
          "name": "",
          "type": "address"
        }
      ],
      "stateMutability": "view",
      "type": "function"
    },
    {
      "inputs": [
        {
          "internalType": "uint256",
          "name": "tokenId",
          "type": "uint256"
        }
      ],
      "name": "ownerOf",
      "outputs": [
        {
          "internalType": "address",
          "name": "",
          "type": "address"
        }
      ],
      "stateMutability": "view",
      "type": "function"
    },
    {
      "inputs": [],
      "name": "pause",
      "outputs": [],
      "stateMutability": "nonpayable",
      "type": "function"
    },
    {
      "inputs": [],
      "name": "paused",
      "outputs": [
        {
          "internalType": "bool",
          "name": "",
          "type": "bool"
        }
      ],
      "stateMutability": "view",
      "type": "function"
    },
    {
      "inputs": [],
      "name": "renounceOwnership",
      "outputs": [],
      "stateMutability": "nonpayable",
      "type": "function"
    },
    {
      "inputs": [
        {
          "internalType": "address",
          "name": "to",
          "type": "address"
        },
        {
          "internalType": "uint256",
          "name": "tokenId",
          "type": "uint256"
        }
      ],
      "name": "safeMint",
      "outputs": [],
      "stateMutability": "payable",
      "type": "function"
    },
    {
      "inputs": [
        {
          "internalType": "address",
          "name": "from",
          "type": "address"
        },
        {
          "internalType": "address",
          "name": "to",
          "type": "address"
        },
        {
          "internalType": "uint256",
          "name": "tokenId",
          "type": "uint256"
        }
      ],
      "name": "safeTransferFrom",
      "outputs": [],
      "stateMutability": "nonpayable",
      "type": "function"
    },
    {
      "inputs": [
        {
          "internalType": "address",
          "name": "from",
          "type": "address"
        },
        {
          "internalType": "address",
          "name": "to",
          "type": "address"
        },
        {
          "internalType": "uint256",
          "name": "tokenId",
          "type": "uint256"
        },
        {
          "internalType": "bytes",
          "name": "data",
          "type": "bytes"
        }
      ],
      "name": "safeTransferFrom",
      "outputs": [],
      "stateMutability": "nonpayable",
      "type": "function"
    },
    {
      "inputs": [
        {
          "internalType": "address",
          "name": "operator",
          "type": "address"
        },
        {
          "internalType": "bool",
          "name": "approved",
          "type": "bool"
        }
      ],
      "name": "setApprovalForAll",
      "outputs": [],
      "stateMutability": "nonpayable",
      "type": "function"
    },
    {
      "inputs": [
        {
          "internalType": "bytes4",
          "name": "interfaceId",
          "type": "bytes4"
        }
      ],
      "name": "supportsInterface",
      "outputs": [
        {
          "internalType": "bool",
          "name": "",
          "type": "bool"
        }
      ],
      "stateMutability": "view",
      "type": "function"
    },
    {
      "inputs": [],
      "name": "symbol",
      "outputs": [
        {
          "internalType": "string",
          "name": "",
          "type": "string"
        }
      ],
      "stateMutability": "view",
      "type": "function"
    },
    {
      "inputs": [
        {
          "internalType": "uint256",
          "name": "tokenId",
          "type": "uint256"
        }
      ],
      "name": "tokenURI",
      "outputs": [
        {
          "internalType": "string",
          "name": "",
          "type": "string"
        }
      ],
      "stateMutability": "view",
      "type": "function"
    },
    {
      "inputs": [
        {
          "internalType": "address",
          "name": "from",
          "type": "address"
        },
        {
          "internalType": "address",
          "name": "to",
          "type": "address"
        },
        {
          "internalType": "uint256",
          "name": "tokenId",
          "type": "uint256"
        }
      ],
      "name": "transferFrom",
      "outputs": [],
      "stateMutability": "nonpayable",
      "type": "function"
    },
    {
      "inputs": [
        {
          "internalType": "address",
          "name": "newOwner",
          "type": "address"
        }
      ],
      "name": "transferOwnership",
      "outputs": [],
      "stateMutability": "nonpayable",
      "type": "function"
    },
    {
      "inputs": [],
      "name": "unpause",
      "outputs": [],
      "stateMutability": "nonpayable",
      "type": "function"
    }
  ],
  "bytecode": "0x6080604052662386f26fc100006007556104006008553480156200002257600080fd5b506040518060400160405280600981526020017f4d696e65636861696e00000000000000000000000000000000000000000000008152506040518060400160405280600581526020017f4d4e43484e0000000000000000000000000000000000000000000000000000008152508160009080519060200190620000a7929190620003a0565b508060019080519060200190620000c0929190620003a0565b5050506000600660006101000a81548160ff021916908315150217905550620000fe620000f26200011460201b60201c565b6200011c60201b60201c565b6200010e620001e260201b60201c565b6200060c565b600033905090565b6000600660019054906101000a900473ffffffffffffffffffffffffffffffffffffffff16905081600660016101000a81548173ffffffffffffffffffffffffffffffffffffffff021916908373ffffffffffffffffffffffffffffffffffffffff1602179055508173ffffffffffffffffffffffffffffffffffffffff168173ffffffffffffffffffffffffffffffffffffffff167f8be0079c531659141344cd1fd0a4f28419497f9722a3daafe3b4186f6b6457e060405160405180910390a35050565b620001f26200020460201b60201c565b620002026200029560201b60201c565b565b620002146200011460201b60201c565b73ffffffffffffffffffffffffffffffffffffffff166200023a6200030a60201b60201c565b73ffffffffffffffffffffffffffffffffffffffff161462000293576040517f08c379a00000000000000000000000000000000000000000000000000000000081526004016200028a90620004ee565b60405180910390fd5b565b620002a56200033460201b60201c565b6001600660006101000a81548160ff0219169083151502179055507f62e78cea01bee320cd4e420270b5ea74000d11b0c9f74754ebdbfc544b05a258620002f16200011460201b60201c565b604051620003009190620004af565b60405180910390a1565b6000600660019054906101000a900473ffffffffffffffffffffffffffffffffffffffff16905090565b620003446200038960201b60201c565b1562000387576040517f08c379a00000000000000000000000000000000000000000000000000000000081526004016200037e90620004cc565b60405180910390fd5b565b6000600660009054906101000a900460ff16905090565b828054620003ae9062000555565b90600052602060002090601f016020900481019282620003d257600085556200041e565b82601f10620003ed57805160ff19168380011785556200041e565b828001600101855582156200041e579182015b828111156200041d57825182559160200191906001019062000400565b5b5090506200042d919062000431565b5090565b5b808211156200044c57600081600090555060010162000432565b5090565b6200045b8162000521565b82525050565b60006200047060108362000510565b91506200047d82620005ba565b602082019050919050565b60006200049760208362000510565b9150620004a482620005e3565b602082019050919050565b6000602082019050620004c6600083018462000450565b92915050565b60006020820190508181036000830152620004e78162000461565b9050919050565b60006020820190508181036000830152620005098162000488565b9050919050565b600082825260208201905092915050565b60006200052e8262000535565b9050919050565b600073ffffffffffffffffffffffffffffffffffffffff82169050919050565b600060028204905060018216806200056e57607f821691505b602082108114156200058557620005846200058b565b5b50919050565b7f4e487b7100000000000000000000000000000000000000000000000000000000600052602260045260246000fd5b7f5061757361626c653a2070617573656400000000000000000000000000000000600082015250565b7f4f776e61626c653a2063616c6c6572206973206e6f7420746865206f776e6572600082015250565b612e2e806200061c6000396000f3fe6080604052600436106101355760003560e01c8063715018a6116100ab578063a22cb4651161006f578063a22cb465146103e1578063b88d4fde1461040a578063c87b56dd14610433578063ca0dcf1614610470578063e985e9c51461049b578063f2fde38b146104d857610135565b8063715018a6146103415780638456cb59146103585780638da5cb5b1461036f57806395d89b411461039a578063a1448194146103c557610135565b806332cb6b0c116100fd57806332cb6b0c146102315780633f4ba83a1461025c57806342842e0e146102735780635c975abb1461029c5780636352211e146102c757806370a082311461030457610135565b806301ffc9a71461013a57806306fdde0314610177578063081812fc146101a2578063095ea7b3146101df57806323b872dd14610208575b600080fd5b34801561014657600080fd5b50610161600480360381019061015c9190611f1b565b610501565b60405161016e9190612344565b60405180910390f35b34801561018357600080fd5b5061018c6105e3565b604051610199919061235f565b60405180910390f35b3480156101ae57600080fd5b506101c960048036038101906101c49190611f6d565b610675565b6040516101d691906122dd565b60405180910390f35b3480156101eb57600080fd5b5061020660048036038101906102019190611edf565b6106bb565b005b34801561021457600080fd5b5061022f600480360381019061022a9190611dd9565b6107d3565b005b34801561023d57600080fd5b50610246610833565b60405161025391906125a1565b60405180910390f35b34801561026857600080fd5b50610271610839565b005b34801561027f57600080fd5b5061029a60048036038101906102959190611dd9565b61084b565b005b3480156102a857600080fd5b506102b161086b565b6040516102be9190612344565b60405180910390f35b3480156102d357600080fd5b506102ee60048036038101906102e99190611f6d565b610882565b6040516102fb91906122dd565b60405180910390f35b34801561031057600080fd5b5061032b60048036038101906103269190611d74565b610934565b60405161033891906125a1565b60405180910390f35b34801561034d57600080fd5b506103566109ec565b005b34801561036457600080fd5b5061036d610a00565b005b34801561037b57600080fd5b50610384610a12565b60405161039191906122dd565b60405180910390f35b3480156103a657600080fd5b506103af610a3c565b6040516103bc919061235f565b60405180910390f35b6103df60048036038101906103da9190611edf565b610ace565b005b3480156103ed57600080fd5b5061040860048036038101906104039190611ea3565b610b65565b005b34801561041657600080fd5b50610431600480360381019061042c9190611e28565b610b7b565b005b34801561043f57600080fd5b5061045a60048036038101906104559190611f6d565b610bdd565b604051610467919061235f565b60405180910390f35b34801561047c57600080fd5b50610485610c45565b60405161049291906125a1565b60405180910390f35b3480156104a757600080fd5b506104c260048036038101906104bd9190611d9d565b610c4b565b6040516104cf9190612344565b60405180910390f35b3480156104e457600080fd5b506104ff60048036038101906104fa9190611d74565b610cdf565b005b60007f80ac58cd000000000000000000000000000000000000000000000000000000007bffffffffffffffffffffffffffffffffffffffffffffffffffffffff1916827bffffffffffffffffffffffffffffffffffffffffffffffffffffffff191614806105cc57507f5b5e139f000000000000000000000000000000000000000000000000000000007bffffffffffffffffffffffffffffffffffffffffffffffffffffffff1916827bffffffffffffffffffffffffffffffffffffffffffffffffffffffff1916145b806105dc57506105db82610d63565b5b9050919050565b6060600080546105f2906127c6565b80601f016020809104026020016040519081016040528092919081815260200182805461061e906127c6565b801561066b5780601f106106405761010080835404028352916020019161066b565b820191906000526020600020905b81548152906001019060200180831161064e57829003601f168201915b5050505050905090565b600061068082610dcd565b6004600083815260200190815260200160002060009054906101000a900473ffffffffffffffffffffffffffffffffffffffff169050919050565b60006106c682610882565b90508073ffffffffffffffffffffffffffffffffffffffff168373ffffffffffffffffffffffffffffffffffffffff161415610737576040517f08c379a000000000000000000000000000000000000000000000000000000000815260040161072e90612521565b60405180910390fd5b8073ffffffffffffffffffffffffffffffffffffffff16610756610e18565b73ffffffffffffffffffffffffffffffffffffffff16148061078557506107848161077f610e18565b610c4b565b5b6107c4576040517f08c379a00000000000000000000000000000000000000000000000000000000081526004016107bb906124a1565b60405180910390fd5b6107ce8383610e20565b505050565b6107e46107de610e18565b82610ed9565b610823576040517f08c379a000000000000000000000000000000000000000000000000000000000815260040161081a90612581565b60405180910390fd5b61082e838383610f6e565b505050565b60085481565b6108416111d5565b610849611253565b565b61086683838360405180602001604052806000815250610b7b565b505050565b6000600660009054906101000a900460ff16905090565b6000806002600084815260200190815260200160002060009054906101000a900473ffffffffffffffffffffffffffffffffffffffff169050600073ffffffffffffffffffffffffffffffffffffffff168173ffffffffffffffffffffffffffffffffffffffff16141561092b576040517f08c379a000000000000000000000000000000000000000000000000000000000815260040161092290612501565b60405180910390fd5b80915050919050565b60008073ffffffffffffffffffffffffffffffffffffffff168273ffffffffffffffffffffffffffffffffffffffff1614156109a5576040517f08c379a000000000000000000000000000000000000000000000000000000000815260040161099c90612481565b60405180910390fd5b600360008373ffffffffffffffffffffffffffffffffffffffff1673ffffffffffffffffffffffffffffffffffffffff168152602001908152602001600020549050919050565b6109f46111d5565b6109fe60006112b6565b565b610a086111d5565b610a1061137c565b565b6000600660019054906101000a900473ffffffffffffffffffffffffffffffffffffffff16905090565b606060018054610a4b906127c6565b80601f0160208091040260200160405190810160405280929190818152602001828054610a77906127c6565b8015610ac45780601f10610a9957610100808354040283529160200191610ac4565b820191906000526020600020905b815481529060010190602001808311610aa757829003601f168201915b5050505050905090565b600754341015610b13576040517f08c379a0000000000000000000000000000000000000000000000000000000008152600401610b0a90612541565b60405180910390fd5b6008548110610b57576040517f08c379a0000000000000000000000000000000000000000000000000000000008152600401610b4e90612561565b60405180910390fd5b610b6182826113df565b5050565b610b77610b70610e18565b83836113fd565b5050565b610b8c610b86610e18565b83610ed9565b610bcb576040517f08c379a0000000000000000000000000000000000000000000000000000000008152600401610bc290612581565b60405180910390fd5b610bd78484848461156a565b50505050565b6060610be882610dcd565b6000610bf26115c6565b90506000815111610c125760405180602001604052806000815250610c3d565b80610c1c846115e6565b604051602001610c2d9291906122b9565b6040516020818303038152906040525b915050919050565b60075481565b6000600560008473ffffffffffffffffffffffffffffffffffffffff1673ffffffffffffffffffffffffffffffffffffffff16815260200190815260200160002060008373ffffffffffffffffffffffffffffffffffffffff1673ffffffffffffffffffffffffffffffffffffffff16815260200190815260200160002060009054906101000a900460ff16905092915050565b610ce76111d5565b600073ffffffffffffffffffffffffffffffffffffffff168173ffffffffffffffffffffffffffffffffffffffff161415610d57576040517f08c379a0000000000000000000000000000000000000000000000000000000008152600401610d4e906123c1565b60405180910390fd5b610d60816112b6565b50565b60007f01ffc9a7000000000000000000000000000000000000000000000000000000007bffffffffffffffffffffffffffffffffffffffffffffffffffffffff1916827bffffffffffffffffffffffffffffffffffffffffffffffffffffffff1916149050919050565b610dd681611793565b610e15576040517f08c379a0000000000000000000000000000000000000000000000000000000008152600401610e0c90612501565b60405180910390fd5b50565b600033905090565b816004600083815260200190815260200160002060006101000a81548173ffffffffffffffffffffffffffffffffffffffff021916908373ffffffffffffffffffffffffffffffffffffffff160217905550808273ffffffffffffffffffffffffffffffffffffffff16610e9383610882565b73ffffffffffffffffffffffffffffffffffffffff167f8c5be1e5ebec7d5bd14f71427d1e84f3dd0314c0f7b2291e5b200ac8c7c3b92560405160405180910390a45050565b600080610ee583610882565b90508073ffffffffffffffffffffffffffffffffffffffff168473ffffffffffffffffffffffffffffffffffffffff161480610f275750610f268185610c4b565b5b80610f6557508373ffffffffffffffffffffffffffffffffffffffff16610f4d84610675565b73ffffffffffffffffffffffffffffffffffffffff16145b91505092915050565b8273ffffffffffffffffffffffffffffffffffffffff16610f8e82610882565b73ffffffffffffffffffffffffffffffffffffffff1614610fe4576040517f08c379a0000000000000000000000000000000000000000000000000000000008152600401610fdb906123e1565b60405180910390fd5b600073ffffffffffffffffffffffffffffffffffffffff168273ffffffffffffffffffffffffffffffffffffffff161415611054576040517f08c379a000000000000000000000000000000000000000000000000000000000815260040161104b90612421565b60405180910390fd5b61105f8383836117ff565b61106a600082610e20565b6001600360008573ffffffffffffffffffffffffffffffffffffffff1673ffffffffffffffffffffffffffffffffffffffff16815260200190815260200160002060008282546110ba91906126dc565b925050819055506001600360008473ffffffffffffffffffffffffffffffffffffffff1673ffffffffffffffffffffffffffffffffffffffff16815260200190815260200160002060008282546111119190612655565b92505081905550816002600083815260200190815260200160002060006101000a81548173ffffffffffffffffffffffffffffffffffffffff021916908373ffffffffffffffffffffffffffffffffffffffff160217905550808273ffffffffffffffffffffffffffffffffffffffff168473ffffffffffffffffffffffffffffffffffffffff167fddf252ad1be2c89b69c2b068fc378daa952ba7f163c4a11628f55a4df523b3ef60405160405180910390a46111d0838383611817565b505050565b6111dd610e18565b73ffffffffffffffffffffffffffffffffffffffff166111fb610a12565b73ffffffffffffffffffffffffffffffffffffffff1614611251576040517f08c379a0000000000000000000000000000000000000000000000000000000008152600401611248906124e1565b60405180910390fd5b565b61125b61181c565b6000600660006101000a81548160ff0219169083151502179055507f5db9ee0a495bf2e6ff9c91a7834c1ba4fdd244a5e8aa4e537bd38aeae4b073aa61129f610e18565b6040516112ac91906122dd565b60405180910390a1565b6000600660019054906101000a900473ffffffffffffffffffffffffffffffffffffffff16905081600660016101000a81548173ffffffffffffffffffffffffffffffffffffffff021916908373ffffffffffffffffffffffffffffffffffffffff1602179055508173ffffffffffffffffffffffffffffffffffffffff168173ffffffffffffffffffffffffffffffffffffffff167f8be0079c531659141344cd1fd0a4f28419497f9722a3daafe3b4186f6b6457e060405160405180910390a35050565b611384611865565b6001600660006101000a81548160ff0219169083151502179055507f62e78cea01bee320cd4e420270b5ea74000d11b0c9f74754ebdbfc544b05a2586113c8610e18565b6040516113d591906122dd565b60405180910390a1565b6113f98282604051806020016040528060008152506118af565b5050565b8173ffffffffffffffffffffffffffffffffffffffff168373ffffffffffffffffffffffffffffffffffffffff16141561146c576040517f08c379a000000000000000000000000000000000000000000000000000000000815260040161146390612441565b60405180910390fd5b80600560008573ffffffffffffffffffffffffffffffffffffffff1673ffffffffffffffffffffffffffffffffffffffff16815260200190815260200160002060008473ffffffffffffffffffffffffffffffffffffffff1673ffffffffffffffffffffffffffffffffffffffff16815260200190815260200160002060006101000a81548160ff0219169083151502179055508173ffffffffffffffffffffffffffffffffffffffff168373ffffffffffffffffffffffffffffffffffffffff167f17307eab39ab6107e8899845ad3d59bd9653f200f220920489ca2b5937696c318360405161155d9190612344565b60405180910390a3505050565b611575848484610f6e565b6115818484848461190a565b6115c0576040517f08c379a00000000000000000000000000000000000000000000000000000000081526004016115b7906123a1565b60405180910390fd5b50505050565b6060604051806080016040528060438152602001612db660439139905090565b6060600082141561162e576040518060400160405280600181526020017f3000000000000000000000000000000000000000000000000000000000000000815250905061178e565b600082905060005b6000821461166057808061164990612829565b915050600a8261165991906126ab565b9150611636565b60008167ffffffffffffffff8111156116a2577f4e487b7100000000000000000000000000000000000000000000000000000000600052604160045260246000fd5b6040519080825280601f01601f1916602001820160405280156116d45781602001600182028036833780820191505090505b5090505b60008514611787576001826116ed91906126dc565b9150600a856116fc9190612872565b60306117089190612655565b60f81b818381518110611744577f4e487b7100000000000000000000000000000000000000000000000000000000600052603260045260246000fd5b60200101907effffffffffffffffffffffffffffffffffffffffffffffffffffffffffffff1916908160001a905350600a8561178091906126ab565b94506116d8565b8093505050505b919050565b60008073ffffffffffffffffffffffffffffffffffffffff166002600084815260200190815260200160002060009054906101000a900473ffffffffffffffffffffffffffffffffffffffff1673ffffffffffffffffffffffffffffffffffffffff1614159050919050565b611807611865565b611812838383611aa1565b505050565b505050565b61182461086b565b611863576040517f08c379a000000000000000000000000000000000000000000000000000000000815260040161185a90612381565b60405180910390fd5b565b61186d61086b565b156118ad576040517f08c379a00000000000000000000000000000000000000000000000000000000081526004016118a490612461565b60405180910390fd5b565b6118b98383611aa6565b6118c6600084848461190a565b611905576040517f08c379a00000000000000000000000000000000000000000000000000000000081526004016118fc906123a1565b60405180910390fd5b505050565b600061192b8473ffffffffffffffffffffffffffffffffffffffff16611c80565b15611a94578373ffffffffffffffffffffffffffffffffffffffff1663150b7a02611954610e18565b8786866040518563ffffffff1660e01b815260040161197694939291906122f8565b602060405180830381600087803b15801561199057600080fd5b505af19250505080156119c157506040513d601f19601f820116820180604052508101906119be9190611f44565b60015b611a44573d80600081146119f1576040519150601f19603f3d011682016040523d82523d6000602084013e6119f6565b606091505b50600081511415611a3c576040517f08c379a0000000000000000000000000000000000000000000000000000000008152600401611a33906123a1565b60405180910390fd5b805181602001fd5b63150b7a0260e01b7bffffffffffffffffffffffffffffffffffffffffffffffffffffffff1916817bffffffffffffffffffffffffffffffffffffffffffffffffffffffff191614915050611a99565b600190505b949350505050565b505050565b600073ffffffffffffffffffffffffffffffffffffffff168273ffffffffffffffffffffffffffffffffffffffff161415611b16576040517f08c379a0000000000000000000000000000000000000000000000000000000008152600401611b0d906124c1565b60405180910390fd5b611b1f81611793565b15611b5f576040517f08c379a0000000000000000000000000000000000000000000000000000000008152600401611b5690612401565b60405180910390fd5b611b6b600083836117ff565b6001600360008473ffffffffffffffffffffffffffffffffffffffff1673ffffffffffffffffffffffffffffffffffffffff1681526020019081526020016000206000828254611bbb9190612655565b92505081905550816002600083815260200190815260200160002060006101000a81548173ffffffffffffffffffffffffffffffffffffffff021916908373ffffffffffffffffffffffffffffffffffffffff160217905550808273ffffffffffffffffffffffffffffffffffffffff16600073ffffffffffffffffffffffffffffffffffffffff167fddf252ad1be2c89b69c2b068fc378daa952ba7f163c4a11628f55a4df523b3ef60405160405180910390a4611c7c60008383611817565b5050565b6000808273ffffffffffffffffffffffffffffffffffffffff163b119050919050565b6000611cb6611cb1846125e1565b6125bc565b905082815260208101848484011115611cce57600080fd5b611cd9848285612784565b509392505050565b600081359050611cf081612d59565b92915050565b600081359050611d0581612d70565b92915050565b600081359050611d1a81612d87565b92915050565b600081519050611d2f81612d87565b92915050565b600082601f830112611d4657600080fd5b8135611d56848260208601611ca3565b91505092915050565b600081359050611d6e81612d9e565b92915050565b600060208284031215611d8657600080fd5b6000611d9484828501611ce1565b91505092915050565b60008060408385031215611db057600080fd5b6000611dbe85828601611ce1565b9250506020611dcf85828601611ce1565b9150509250929050565b600080600060608486031215611dee57600080fd5b6000611dfc86828701611ce1565b9350506020611e0d86828701611ce1565b9250506040611e1e86828701611d5f565b9150509250925092565b60008060008060808587031215611e3e57600080fd5b6000611e4c87828801611ce1565b9450506020611e5d87828801611ce1565b9350506040611e6e87828801611d5f565b925050606085013567ffffffffffffffff811115611e8b57600080fd5b611e9787828801611d35565b91505092959194509250565b60008060408385031215611eb657600080fd5b6000611ec485828601611ce1565b9250506020611ed585828601611cf6565b9150509250929050565b60008060408385031215611ef257600080fd5b6000611f0085828601611ce1565b9250506020611f1185828601611d5f565b9150509250929050565b600060208284031215611f2d57600080fd5b6000611f3b84828501611d0b565b91505092915050565b600060208284031215611f5657600080fd5b6000611f6484828501611d20565b91505092915050565b600060208284031215611f7f57600080fd5b6000611f8d84828501611d5f565b91505092915050565b611f9f81612710565b82525050565b611fae81612722565b82525050565b6000611fbf82612612565b611fc98185612628565b9350611fd9818560208601612793565b611fe28161295f565b840191505092915050565b6000611ff88261261d565b6120028185612639565b9350612012818560208601612793565b61201b8161295f565b840191505092915050565b60006120318261261d565b61203b818561264a565b935061204b818560208601612793565b80840191505092915050565b6000612064601483612639565b915061206f82612970565b602082019050919050565b6000612087603283612639565b915061209282612999565b604082019050919050565b60006120aa602683612639565b91506120b5826129e8565b604082019050919050565b60006120cd602583612639565b91506120d882612a37565b604082019050919050565b60006120f0601c83612639565b91506120fb82612a86565b602082019050919050565b6000612113602483612639565b915061211e82612aaf565b604082019050919050565b6000612136601983612639565b915061214182612afe565b602082019050919050565b6000612159601083612639565b915061216482612b27565b602082019050919050565b600061217c602983612639565b915061218782612b50565b604082019050919050565b600061219f603e83612639565b91506121aa82612b9f565b604082019050919050565b60006121c2602083612639565b91506121cd82612bee565b602082019050919050565b60006121e5602083612639565b91506121f082612c17565b602082019050919050565b6000612208601883612639565b915061221382612c40565b602082019050919050565b600061222b602183612639565b915061223682612c69565b604082019050919050565b600061224e601983612639565b915061225982612cb8565b602082019050919050565b6000612271601183612639565b915061227c82612ce1565b602082019050919050565b6000612294602e83612639565b915061229f82612d0a565b604082019050919050565b6122b38161277a565b82525050565b60006122c58285612026565b91506122d18284612026565b91508190509392505050565b60006020820190506122f26000830184611f96565b92915050565b600060808201905061230d6000830187611f96565b61231a6020830186611f96565b61232760408301856122aa565b81810360608301526123398184611fb4565b905095945050505050565b60006020820190506123596000830184611fa5565b92915050565b600060208201905081810360008301526123798184611fed565b905092915050565b6000602082019050818103600083015261239a81612057565b9050919050565b600060208201905081810360008301526123ba8161207a565b9050919050565b600060208201905081810360008301526123da8161209d565b9050919050565b600060208201905081810360008301526123fa816120c0565b9050919050565b6000602082019050818103600083015261241a816120e3565b9050919050565b6000602082019050818103600083015261243a81612106565b9050919050565b6000602082019050818103600083015261245a81612129565b9050919050565b6000602082019050818103600083015261247a8161214c565b9050919050565b6000602082019050818103600083015261249a8161216f565b9050919050565b600060208201905081810360008301526124ba81612192565b9050919050565b600060208201905081810360008301526124da816121b5565b9050919050565b600060208201905081810360008301526124fa816121d8565b9050919050565b6000602082019050818103600083015261251a816121fb565b9050919050565b6000602082019050818103600083015261253a8161221e565b9050919050565b6000602082019050818103600083015261255a81612241565b9050919050565b6000602082019050818103600083015261257a81612264565b9050919050565b6000602082019050818103600083015261259a81612287565b9050919050565b60006020820190506125b660008301846122aa565b92915050565b60006125c66125d7565b90506125d282826127f8565b919050565b6000604051905090565b600067ffffffffffffffff8211156125fc576125fb612930565b5b6126058261295f565b9050602081019050919050565b600081519050919050565b600081519050919050565b600082825260208201905092915050565b600082825260208201905092915050565b600081905092915050565b60006126608261277a565b915061266b8361277a565b9250827fffffffffffffffffffffffffffffffffffffffffffffffffffffffffffffffff038211156126a05761269f6128a3565b5b828201905092915050565b60006126b68261277a565b91506126c18361277a565b9250826126d1576126d06128d2565b5b828204905092915050565b60006126e78261277a565b91506126f28361277a565b925082821015612705576127046128a3565b5b828203905092915050565b600061271b8261275a565b9050919050565b60008115159050919050565b60007fffffffff0000000000000000000000000000000000000000000000000000000082169050919050565b600073ffffffffffffffffffffffffffffffffffffffff82169050919050565b6000819050919050565b82818337600083830152505050565b60005b838110156127b1578082015181840152602081019050612796565b838111156127c0576000848401525b50505050565b600060028204905060018216806127de57607f821691505b602082108114156127f2576127f1612901565b5b50919050565b6128018261295f565b810181811067ffffffffffffffff821117156128205761281f612930565b5b80604052505050565b60006128348261277a565b91507fffffffffffffffffffffffffffffffffffffffffffffffffffffffffffffffff821415612867576128666128a3565b5b600182019050919050565b600061287d8261277a565b91506128888361277a565b925082612898576128976128d2565b5b828206905092915050565b7f4e487b7100000000000000000000000000000000000000000000000000000000600052601160045260246000fd5b7f4e487b7100000000000000000000000000000000000000000000000000000000600052601260045260246000fd5b7f4e487b7100000000000000000000000000000000000000000000000000000000600052602260045260246000fd5b7f4e487b7100000000000000000000000000000000000000000000000000000000600052604160045260246000fd5b6000601f19601f8301169050919050565b7f5061757361626c653a206e6f7420706175736564000000000000000000000000600082015250565b7f4552433732313a207472616e7366657220746f206e6f6e20455243373231526560008201527f63656976657220696d706c656d656e7465720000000000000000000000000000602082015250565b7f4f776e61626c653a206e6577206f776e657220697320746865207a65726f206160008201527f6464726573730000000000000000000000000000000000000000000000000000602082015250565b7f4552433732313a207472616e736665722066726f6d20696e636f72726563742060008201527f6f776e6572000000000000000000000000000000000000000000000000000000602082015250565b7f4552433732313a20746f6b656e20616c7265616479206d696e74656400000000600082015250565b7f4552433732313a207472616e7366657220746f20746865207a65726f2061646460008201527f7265737300000000000000000000000000000000000000000000000000000000602082015250565b7f4552433732313a20617070726f766520746f2063616c6c657200000000000000600082015250565b7f5061757361626c653a2070617573656400000000000000000000000000000000600082015250565b7f4552433732313a2061646472657373207a65726f206973206e6f74206120766160008201527f6c6964206f776e65720000000000000000000000000000000000000000000000602082015250565b7f4552433732313a20617070726f76652063616c6c6572206973206e6f7420746f60008201527f6b656e206f776e6572206e6f7220617070726f76656420666f7220616c6c0000602082015250565b7f4552433732313a206d696e7420746f20746865207a65726f2061646472657373600082015250565b7f4f776e61626c653a2063616c6c6572206973206e6f7420746865206f776e6572600082015250565b7f4552433732313a20696e76616c696420746f6b656e2049440000000000000000600082015250565b7f4552433732313a20617070726f76616c20746f2063757272656e74206f776e6560008201527f7200000000000000000000000000000000000000000000000000000000000000602082015250565b7f4e6f7420456e6f75676820657468657220746f206d696e742e00000000000000600082015250565b7f496e76616c696420546f6b656e2049642e000000000000000000000000000000600082015250565b7f4552433732313a2063616c6c6572206973206e6f7420746f6b656e206f776e6560008201527f72206e6f7220617070726f766564000000000000000000000000000000000000602082015250565b612d6281612710565b8114612d6d57600080fd5b50565b612d7981612722565b8114612d8457600080fd5b50565b612d908161272e565b8114612d9b57600080fd5b50565b612da78161277a565b8114612db257600080fd5b5056fe697066733a2f2f6261667962656967797371667265756478376874696d6b68616676697636796a796375786565376d6232363374336d6c6a6a6e7a6134716e3262652fa2646970667358221220d8cfbb1f0c44d3162de0e2cda9da398b1865a344d9880453ccb226ebab66fe8c64736f6c63430008040033",
  "linkReferences": {},
  "deployedLinkReferences": {}
}